:020000040800F2
:100000000028002021120008590300085B030008A3
:100010005D0300085F0300086103000800000000A2
:100020000000000000000000000000006303000862
:10003000650300080000000067030008690300086A
:1000400069120008691200086912000869120008A4
:100050006912000869120008691200086912000894
:100060006912000869120008691200086912000884
:100070006912000869120008691200086912000874
:100080006912000869120008691200086912000864
:100090006912000869120008691200086912000854
:1000A0006912000869120008691200086912000844
:1000B00071030008691200080000000069120008BE
:1000C000691200080000000000000000691200082A
:1000D000000000006912000869120008000000001A
:1000E0006912000869120008691200080000000087
:1000F0000000000000000000000000000000000000
:0C01000000000000000000005FF808F1A3
:10010C000348044B834202D0034B03B1184770479A
:10011C000C0000200C000020000000000548064BDD
:10012C001B1AD90F01EBA301491002D0034B03B1E9
:10013C00184770470C0000200C0000200000000045
:10014C0010B5064C237843B9FFF7DAFF044B13B113
:10015C000448AFF300800123237010BD0C00002075
:10016C0000000000C412000808B5054B1BB105497E
:10017C000548AFF30080BDE80840FFF7CFBF00BFD4
:10018C000000000010000020C412000830B587B039
:10019C00002402940394049405940E4B9A6942F043
:1001AC0004029A619B6903F004030193019B0A4DBD
:1001BC0022466021284600F0A3FF6023029301230E
:1001CC00039304940223059302A9284600F08CFEA5
:1001DC0007B030BD001002400008014010B5054CBE
:1001EC002021204600F092FF4021204600F08EFF97
:1001FC0010BD00BF0008014008B500F095F808BD1F
:10020C0072B6FEE700B587B0002302930393049304
:10021C0005930093019314484FF08042026041F61D
:10022C003F72426083600922C2600361836100F007
:10023C0027FA90B94FF48053029302A90A4800F0B0
:10024C0057FA60B90023009301936946064800F001
:10025C00CFFA30B907B05DF804FBFFF7D1FFFFF719
:10026C00CFFFFFF7CDFF00BF2800002000B591B0F5
:10027C002822002106A800F0F2FF0023019302932C
:10028C000393049305930223069301230A931023EB
:10029C000B9306A800F040FB68B90F2301930021D3
:1002AC00029103910491059101A800F067FD20B91A
:1002BC0011B05DF804FBFFF7A3FFFFF7A1FF0000EF
:1002CC0008B500F0EFFAFFF7D1FFFFF75FFFFFF77C
:1002DC0099FF0D4800F0B0F8C82000F01BF80B4C4B
:1002EC0000222021204600F00BFF01224021204655
:1002FC0000F006FF064B1B68012BFBD1FFF76EFFCE
:10030C00C82000F007F8F5E728000020000801409D
:10031C0074000020024B1860024B00221A607047D8
:10032C007000002074000020064B1B68002B04DDBD
:10033C00013B044A1360002B00DD7047024B012285
:10034C001A60FAE77000002074000020FEE7FEE758
:10035C00FEE7FEE7FEE770477047704708B500F010
:10036C00B3FA08BD08B5024800F09AF808BD00BF02
:10037C002800002082B00A4B9A6942F001029A616F
:10038C009A6902F001020092009ADA6942F08052F6
:10039C00DA61DB6903F080530193019B02B0704773
:1003AC00001002400368B3F1804F00D0704700B5D5
:1003BC0083B003F50433DA6942F00102DA61DB69D8
:1003CC0003F001030193019B002211461C2000F055
:1003DC00EDFE1C2000F0FAFE03B05DF804FB10B437
:1003EC00036A046A24F001040462846924F0F00CAA
:1003FC004CEA021223F00A030B438261036210BC25
:10040C00704710B4036A046A24F01004046284690F
:10041C0024F4704C4CEA023223F0A00343EA01139B
:10042C008261036210BC7047836823F070030B4336
:10043C0043F007038360704790F83D30DBB2012B2B
:10044C0023D1022380F83D300268D36843F00103C6
:10045C00D36003680F4A93420CD0B3F1804F09D09C
:10046C00A2F59432934205D01A6842F001021A6048
:10047C00002070479A6802F00702062A07D01A6813
:10048C0042F001021A6000207047012070470020E2
:10049C00704700BF002C0140704770477047704791
:1004AC0010B5044603681A6912F0020F11D0DA680D
:1004BC0012F0020F0DD06FF002021A6101230377C4
:1004CC0003689B6913F0030F70D0FFF7E6FF00235E
:1004DC00237723681A6912F0040F12D0DA6812F02D
:1004EC00040F0ED06FF004021A61022323772368E5
:1004FC009B6913F4407F5FD02046FFF7CEFF0023AB
:10050C00237723681A6912F0080F12D0DA6812F0F8
:10051C00080F0ED06FF008021A61042323772368AA
:10052C00DB6913F0030F4ED02046FFF7B6FF002314
:10053C00237723681A6912F0100F12D0DA6812F0C0
:10054C00100F0ED06FF010021A6108232377236866
:10055C00DB6913F4407F3DD02046FFF79EFF00235C
:10056C00237723681A6912F0010F03D0DA6812F0AE
:10057C00010F36D123681A6912F0800F03D0DA68A4
:10058C0012F0800F34D123681A6912F0400F03D097
:10059C00DA6812F0400F32D123681A6912F0200F7A
:1005AC0003D0DA6812F0200F30D110BDFFF774FFC2
:1005BC002046FFF773FF8AE72046FFF76DFF2046C2
:1005CC00FFF76CFF9BE72046FFF766FF2046FFF71F
:1005DC0065FFACE72046FFF75FFF2046FFF75EFFA5
:1005EC00BDE76FF001021A612046FFF705FEC1E777
:1005FC006FF080021A61204600F02DF9C3E76FF00E
:10060C0040021A612046FFF74AFFC5E76FF020024F
:10061C001A61204600F01EF9C7E700000368174A6C
:10062C00904206D0B0F1804F03D0A2F594329042A4
:10063C0003D123F070034A681343104A904206D04A
:10064C00B0F1804F03D0A2F59432904203D123F441
:10065C004073CA68134323F080034A691343036051
:10066C008B68C3620B688362044B984202D00123EF
:10067C00436170470B690363F9E700BF002C01402D
:10068C0040B310B5044690F83D30F3B1022384F822
:10069C003D30214651F8040BFFF7C0FF012384F8CD
:1006AC00463084F83E3084F83F3084F8403084F88B
:1006BC00413084F8423084F8433084F8443084F874
:1006CC00453084F83D30002010BD80F83C30FFF7F9
:1006DC0069FEDBE70120704710B4846824F47F4C7A
:1006EC0042EA03220A4342EA0C02826010BC7047C1
:1006FC0090F83C30012B78D010B50446012380F8DB
:10070C003C30022380F83D300268936823F47F4329
:10071C0023F0770393600B68602B4CD029D8402BC7
:10072C0054D00CD9502B22D1CA6849680068FFF705
:10073C0056FE50212068FFF777FE002005E0202BA5
:10074C000DD009D9302B0AD00120012384F83D307B
:10075C00002384F83C3010BD0BB1102B05D1194689
:10076C002068FFF761FE0020EFE70120EDE7012094
:10077C00EBE7B3F5805F34D0B3F5005F0CD1CB68F9
:10078C004A6889680068FFF7A7FF2268936843F4FA
:10079C00804393600020D8E7702B24D1CB684A6843
:1007AC0089680068FFF798FF2268936843F0770325
:1007BC0093600020C9E7CA6849680068FFF721FE0A
:1007CC0060212068FFF730FE0020BEE7CA68496848
:1007DC000068FFF704FE40212068FFF725FE00208B
:1007EC00B3E70020B1E70120AFE70220704700001B
:1007FC0090F83C20012A28D010B40346012280F83E
:10080C003C20022280F83D2002685068946820F059
:10081C00700C086840EA0C0050601A680C48824260
:10082C0006D0B2F1804F03D0A0F59430824204D1AF
:10083C0024F08004496821439160012283F83D2013
:10084C00002083F83C0010BC70470220704700BFAA
:10085C00002C01407047704710B504460E4B1A78B7
:10086C004FF47A73B3FBF2F30C4A1068B0FBF3F05D
:10087C0000F0BAFC68B90F2C01D901200AE0002263
:10088C0021464FF0FF3000F091FC054B1C6000201E
:10089C0000E0012010BD00BF000000200800002077
:1008AC000400002008B5074A136843F010031360D6
:1008BC00032000F069FC0F20FFF7CEFFFFF75AFD75
:1008CC00002008BD00200240034A1168034B1B782E
:1008DC000B441360704700BF78000020000000201C
:1008EC00014B1868704700BF7800002082B0084B9D
:1008FC001B68084AA2FB03235B0A00FB03F301936A
:10090C0000BF019B5A1E0192002BF9D102B0704717
:10091C0008000020D34D6210002800F0F18170B562
:10092C0082B00446036813F0010F2CD0994B5B681E
:10093C0003F00C03042B1DD0964B5B6803F00C03E7
:10094C00082B12D06368B3F5803F41D0002B55D1F2
:10095C0003F1804303F504331A6822F480321A60E1
:10096C001A6822F480221A6037E08A4B5B6813F411
:10097C00803FE7D0874B1B6813F4003F03D06368BC
:10098C00002B00F0BF81236813F0020F75D0814B50
:10099C005B6813F00C0F5FD07E4B5B6803F00C03AD
:1009AC00082B54D02369002B00F08A807A4B01224B
:1009BC001A60FFF795FF0546764B1B6813F0020F84
:1009CC0075D1FFF78DFF401B0228F5D903209EE15E
:1009DC00704A136843F480331360636843B3FFF7C2
:1009EC007FFF05466B4B1B6813F4003FCBD1FFF721
:1009FC0077FF401B6428F5D9032088E1B3F5A02FBD
:100A0C0009D0644B1A6822F480321A601A6822F4F6
:100A1C0080221A60E1E703F18043A3F53C331A68A6
:100A2C0042F480221A601A6842F480321A60D4E7C9
:100A3C00FFF756FF0546574B1B6813F4003FA2D037
:100A4C00FFF74EFF401B6428F5D903205FE1514BA3
:100A5C005B6813F4803FA5D14E4B1B6813F0020F5B
:100A6C0003D02369012B40F04F814A4A136823F0CD
:100A7C00F803616943EAC1031360236813F0080F9C
:100A8C0033D0A369002B5CD0434B0122C3F88024E4
:100A9C00FFF726FF05463F4B5B6A13F0020F21D18F
:100AAC00FFF71EFF401B0228F5D903202FE1394A1E
:100ABC00136823F0F803616943EAC1031360DCE7B0
:100ACC00354B00221A60FFF70BFF0546314B1B68B4
:100ADC0013F0020FD1D0FFF703FF401B0228F5D90A
:100AEC00032014E10120FFF701FF236813F0040F2A
:100AFC0000F09680274BDB6913F0805F34D1254BD7
:100B0C00DA6942F08052DA61DB6903F080530193B9
:100B1C00019B0125214B1B6813F4807F26D0E368D1
:100B2C00012B3DD0002B53D103F1804303F504334B
:100B3C001A6A22F001021A621A6A22F004021A627C
:100B4C0033E0154B0022C3F88024FFF7C9FE05469D
:100B5C00104B5B6A13F0020FC7D0FFF7C1FE401BAE
:100B6C000228F5D90320D2E00025D3E70B4A1368FD
:100B7C0043F480731360FFF7B3FE0646074B1B6804
:100B8C0013F4807FCBD1FFF7ABFE801B6428F5D923
:100B9C000320BCE000100240000042420070004004
:100BAC005F4A136A43F001031362E36833B3FFF740
:100BBC0097FE06465A4B1B6A13F0020F2FD1FFF714
:100BCC008FFE801B41F288339842F3D903209EE0BC
:100BDC00052B09D0524B1A6A22F001021A621A6ACA
:100BEC0022F004021A62E0E74D4B1A6A42F004024A
:100BFC001A621A6A42F001021A62D6E7FFF770FE17
:100C0C000646474B1B6A13F0020F08D0FFF768FE2D
:100C1C00801B41F288339842F3D9032077E0E5B981
:100C2C00E369002B72D03E4A526802F00C02082A8B
:100C3C0056D0022B17D03B4B00221A66FFF750FE02
:100C4C000446374B1B6813F0007F47D0FFF748FE74
:100C5C00001B0228F5D9032059E0314AD36923F04F
:100C6C008053D361DCE72F4B00221A66FFF738FE66
:100C7C0005462B4B1B6813F0007F06D0FFF730FEA8
:100C8C00401B0228F5D9032041E0236AB3F5803FCD
:100C9C001AD023494B6823F47413226A606A024306
:100CAC0013434B601F4B01221A66FFF719FE0446D3
:100CBC001B4B1B6813F0007F0ED1FFF711FE001BBE
:100CCC000228F5D9032022E0154A536823F4003397
:100CDC00A1680B435360DCE7002018E0002016E00D
:100CEC00012B16D00E4B5B6803F48031226A9142C3
:100CFC0011D103F47013626A93420ED1002006E006
:100D0C0001207047012002E0012000E0002002B029
:100D1C0070BD0120FBE70120F9E70120F7E700BFD8
:100D2C0000100240000042420F4B5B6803F00C02C3
:100D3C00082A01D00D487047C3F383420C49885CE4
:100D4C0013F4803F0BD0084B5B68C3F34043094A54
:100D5C00D35C064A02FB00F0B0FBF3F07047064B85
:100D6C0003FB00F0704700BF0010024000127A0035
:100D7C00E0120008DC12000800093D00002800F019
:100D8C00A08070B50D460446524B1B6803F0070358
:100D9C008B420BD24F4A136823F007030B431360AB
:100DAC00136803F007038B4240F08D80236813F027
:100DBC00020F17D013F0040F04D0474A536843F4C2
:100DCC00E0635360236813F0080F04D0424A536861
:100DDC0043F460535360404A536823F0F003A16816
:100DEC000B435360236813F0010F31D06368012B60
:100DFC0020D0022B25D0384A126812F0020F64D092
:100E0C0035494A6822F0030213434B60FFF768FD33
:100E1C000646314B5B6803F00C036268B3EB820F40
:100E2C0016D0FFF75DFD801B41F288339842F0D954
:100E3C00032045E0284A126812F4003FE0D101205B
:100E4C003EE0254A126812F0007FD9D1012037E02C
:100E5C00204B1B6803F00703AB420AD91D4A1368E9
:100E6C0023F007032B431360136803F00703AB4213
:100E7C002DD1236813F0040F06D0174A536823F4BE
:100E8C00E063E1680B435360236813F0080F07D04D
:100E9C00114A536823F46053216943EAC103536038
:100EAC00FFF742FF0C4B5B68C3F303130B4AD35C95
:100EBC00D8400B4B18600B4B1868FFF7CDFC00208B
:100ECC0070BD012070470120FAE70120F8E70120EE
:100EDC00F6E700BF0020024000100240F0120008AC
:100EEC00080000200400002070B582B00024A44645
:100EFC0086E07D4DAB4210D007D97C4DAB420CD077
:100F0C0005F58035AB4208D015E0A5F58015AB4250
:100F1C0003D005F57025AB4209D18B68002B00F08E
:100F2C00BB80012B00F0B3804261082403E0A5F5DF
:100F3C008015AB42F1D0BEF1FF0F00F2AF80064638
:100F4C004FEA8C0233680F25954023EA050304FA17
:100F5C0002F2134333604B6813F0805F4ED0644B46
:100F6C009A6942F001029A619B6903F001030193B3
:100F7C00019B4FEA9C02951C5E4B53F825600CF0CC
:100F8C000305AD000F23AB4026EA03065A4B9842EB
:100F9C0000F08B8003F58063984200F0888003F5A5
:100FAC00806398427FD00323AB4033430232514DD0
:100FBC0045F822304B6813F4801F7AD04F4A93685F
:100FCC0043EA0E0393604B6813F4001F77D04B4A2F
:100FDC00D36843EA0E03D3604B6813F4003F74D01C
:100FEC00464A536843EA0E0353604B6813F4803F40
:100FFC0071D0424A136843EA0E0313600CF1010CE2
:10100C000B6833FA0CF26CD0012202FA0CF203EAF0
:10101C00020E32EA0303F1D14B68122B3FF669AF93
:10102C00122B88D801A555F823F000BF270F000814
:10103C00851000088F100008A1100008430F00084D
:10104C00430F0008430F0008430F0008430F00082C
:10105C00430F0008430F0008430F0008430F00081C
:10106C00430F0008430F0008430F0008430F00080C
:10107C008910000895100008CC685CE7CC68043433
:10108C0059E7CC68083456E7CC680C3453E7026156
:10109C00082450E700244EE704244CE7061DACF16D
:1010AC00080292004EE702237EE700237CE701232F
:1010BC007AE7124A936823EA0E03936083E70F4A98
:1010CC00D36823EA0E03D36086E70C4A536823EAFD
:1010DC000E03536089E7094A136823EA0E03136071
:1010EC008CE702B070BD00BF000022100000311070
:1010FC0000100240000001400008014000040140C3
:10110C000AB101617047090401617047C36801EAC3
:10111C00030221EA030141EA024101617047000028
:10112C00002808DB0901C9B200F1604000F56140FC
:10113C0080F80013704700F00F000901C9B2014B91
:10114C001954704714ED00E000B500F00700C0F131
:10115C00070CBCF1040F28BF4FF0040C031D062B29
:10116C000FD9C31E4FF0FF3E0EFA0CF021EA00011E
:10117C0099400EFA03FE22EA0E0241EA02005DF8E3
:10118C0004FB0023EEE70000074AD36823F4E06376
:10119C001B041B0C000200F4E060034343F0BF632C
:1011AC0043F40033D360704700ED00E010B5044603
:1011BC00054BD868C0F30220FFF7C6FF0146204656
:1011CC00FFF7AEFF10BD00BF00ED00E0002807DB0D
:1011DC0000F01F02400901239340024A42F82030DC
:1011EC00704700BF00E100E00138B0F1807F0BD206
:1011FC004FF0E0235861054AF02182F823100020BB
:10120C00986107221A6170470120704700ED00E0D9
:10121C0070470000FFF7FCFF0B480C490C4A0023F9
:10122C0002E0D458C4500433C4188C42F9D3094A90
:10123C00094C002301E013600432A242FBD300F0FE
:10124C0017F8FFF73DF87047000000200C00002055
:10125C00081300080C0000207C000020FEE7034669
:10126C000244934200D1704703F8011BF9E70000D8
:10127C0070B500260C4D0D4C641BA410A64209D170
:10128C0000F01AF800260A4D0A4C641BA410A64262
:10129C0005D170BD55F8043B98470136EEE755F87B
:1012AC00043B98470136F2E70013000800130008CE
:1012BC000013000804130008F8B500BFF8BC08BC04
:1012CC009E467047F8B500BFF8BC08BC9E467047F8
:1012DC000102000002030405060708090A0B0C0DA5
:1012EC000E0F1010000000000000000001020304AB
:0412FC0006070809D0
:04130000750100086B
:041304004D0100088F
:0C13080001000000100000000024F400B0
:0400000508001221BC
:00000001FF
